{"abi":[{"type":"constructor","inputs":[{"name":"_wallnutToken","type":"address","internalType":"address"},{"name":"initialOwner","type":"address","internalType":"address"}],"stateMutability":"nonpayable"},{"type":"function","name":"MONTH_COST","inputs":[],"outputs":[{"name":"","type":"uint256","internalType":"uint256"}],"stateMutability":"view"},{"type":"function","name":"PDF_ACCESS_COST","inputs":[],"outputs":[{"name":"","type":"uint256","internalType":"uint256"}],"stateMutability":"view"},{"type":"function","name":"SEVEN_DAY_COST","inputs":[],"outputs":[{"name":"","type":"uint256","internalType":"uint256"}],"stateMutability":"view"},{"type":"function","name":"accessLogsAsPDF","inputs":[],"outputs":[],"stateMutability":"nonpayable"},{"type":"function","name":"getUserLogs","inputs":[{"name":"user","type":"address","internalType":"address"}],"outputs":[{"name":"","type":"string","internalType":"string"}],"stateMutability":"view"},{"type":"function","name":"isLogsValid","inputs":[{"name":"user","type":"address","internalType":"address"}],"outputs":[{"name":"","type":"bool","internalType":"bool"}],"stateMutability":"view"},{"type":"function","name":"owner","inputs":[],"outputs":[{"name":"","type":"address","internalType":"address"}],"stateMutability":"view"},{"type":"function","name":"renounceOwnership","inputs":[],"outputs":[],"stateMutability":"nonpayable"},{"type":"function","name":"setWallnutToken","inputs":[{"name":"_wallnutToken","type":"address","internalType":"address"}],"outputs":[],"stateMutability":"nonpayable"},{"type":"function","name":"storeLogs","inputs":[{"name":"logs","type":"string","internalType":"string"},{"name":"duration","type":"uint256","internalType":"uint256"}],"outputs":[],"stateMutability":"nonpayable"},{"type":"function","name":"transferOwnership","inputs":[{"name":"newOwner","type":"address","internalType":"address"}],"outputs":[],"stateMutability":"nonpayable"},{"type":"function","name":"userLogs","inputs":[{"name":"","type":"address","internalType":"address"}],"outputs":[{"name":"logs","type":"string","internalType":"string"},{"name":"timestamp","type":"uint256","internalType":"uint256"},{"name":"expiryTime","type":"uint256","internalType":"uint256"},{"name":"isValid","type":"bool","internalType":"bool"}],"stateMutability":"view"},{"type":"function","name":"wallnutToken","inputs":[],"outputs":[{"name":"","type":"address","internalType":"contract Wallnut"}],"stateMutability":"view"},{"type":"function","name":"withdrawTokens","inputs":[{"name":"amount","type":"uint256","internalType":"uint256"}],"outputs":[],"stateMutability":"nonpayable"},{"type":"event","name":"LogsAccessed","inputs":[{"name":"user","type":"address","indexed":true,"internalType":"address"},{"name":"logs","type":"string","indexed":false,"internalType":"string"}],"anonymous":false},{"type":"event","name":"LogsStored","inputs":[{"name":"user","type":"address","indexed":true,"internalType":"address"},{"name":"logs","type":"string","indexed":false,"internalType":"string"},{"name":"duration","type":"uint256","indexed":false,"internalType":"uint256"}],"anonymous":false},{"type":"event","name":"OwnershipTransferred","inputs":[{"name":"previousOwner","type":"address","indexed":true,"internalType":"address"},{"name":"newOwner","type":"address","indexed":true,"internalType":"address"}],"anonymous":false},{"type":"error","name":"OwnableInvalidOwner","inputs":[{"name":"owner","type":"address","internalType":"address"}]},{"type":"error","name":"OwnableUnauthorizedAccount","inputs":[{"name":"account","type":"address","internalType":"address"}]}],"bytecode":{"object":"0x608060405234801561001057600080fd5b50604051611f46380380611f4683398181016040528101906100329190610224565b80600073ffffffffffffffffffffffffffffffffffffffff168173ffffffffffffffffffffffffffffffffffffffff16036100a55760006040517f1e4fbdf700000000000000000000000000000000000000000000000000000000815260040161009c9190610273565b60405180910390fd5b6100b4816100fd60201b60201c565b5081600160006101000a81548173ffffffffffffffffffffffffffffffffffffffff021916908373ffffffffffffffffffffffffffffffffffffffff160217905550505061028e565b60008060009054906101000a900473ffffffffffffffffffffffffffffffffffffffff169050816000806101000a81548173ffffffffffffffffffffffffffffffffffffffff021916908373ffffffffffffffffffffffffffffffffffffffff1602179055508173ffffffffffffffffffffffffffffffffffffffff168173ffffffffffffffffffffffffffffffffffffffff167f8be0079c531659141344cd1fd0a4f28419497f9722a3daafe3b4186f6b6457e060405160405180910390a35050565b600080fd5b600073ffffffffffffffffffffffffffffffffffffffff82169050919050565b60006101f1826101c6565b9050919050565b610201816101e6565b811461020c57600080fd5b50565b60008151905061021e816101f8565b92915050565b6000806040838503121561023b5761023a6101c1565b5b60006102498582860161020f565b925050602061025a8582860161020f565b9150509250929050565b61026d816101e6565b82525050565b60006020820190506102886000830184610264565b92915050565b611ca98061029d6000396000f3fe608060405234801561001057600080fd5b50600436106100ea5760003560e01c8063895b5de41161008c5780639a93cf92116100665780639a93cf9214610213578063a85a150d1461022f578063b74941aa1461024d578063f2fde38b14610280576100ea565b8063895b5de4146101b95780638da5cb5b146101d7578063983a68f4146101f5576100ea565b80633a0cfd20116100c85780633a0cfd20146101455780635de0f6f614610175578063715018a6146101a55780637cb12244146101af576100ea565b8063192bb6ae146100ef578063315a095d1461010b57806339f9ba3814610127575b600080fd5b61010960048036038101906101049190611202565b61029c565b005b6101256004803603810190610120919061125e565b6106ba565b005b61012f610766565b60405161013c919061130a565b60405180910390f35b61015f600480360381019061015a9190611363565b61078c565b60405161016c91906113ab565b60405180910390f35b61018f600480360381019061018a9190611363565b6108b9565b60405161019c9190611445565b60405180910390f35b6101ad6109d5565b005b6101b76109e9565b005b6101c1610d3b565b6040516101ce9190611476565b60405180910390f35b6101df610d47565b6040516101ec91906114a0565b60405180910390f35b6101fd610d70565b60405161020a9190611476565b60405180910390f35b61022d60048036038101906102289190611363565b610d7c565b005b610237610dc8565b6040516102449190611476565b60405180910390f35b61026760048036038101906102629190611363565b610dd4565b60405161027794939291906114bb565b60405180910390f35b61029a60048036038101906102959190611363565b610e99565b005b600781146102b2576729a2241af62c00006102bc565b670de0b6b3a76400005b80600160009054906101000a900473ffffffffffffffffffffffffffffffffffffffff1673ffffffffffffffffffffffffffffffffffffffff166370a08231336040518263ffffffff1660e01b815260040161031891906114a0565b602060405180830381865afa158015610335573d6000803e3d6000fd5b505050506040513d601f19601f82011682018060405250810190610359919061151c565b101561039a576040517f08c379a000000000000000000000000000000000000000000000000000000000815260040161039190611595565b60405180910390fd5b674563918244f40000600160009054906101000a900473ffffffffffffffffffffffffffffffffffffffff1673ffffffffffffffffffffffffffffffffffffffff166370a08231336040518263ffffffff1660e01b81526004016103fe91906114a0565b602060405180830381865afa15801561041b573d6000803e3d6000fd5b505050506040513d601f19601f8201168201806040525081019061043f919061151c565b1015610480576040517f08c379a00000000000000000000000000000000000000000000000000000000081526004016104779061164d565b60405180910390fd5b600782148061048f5750601e82145b6104ce576040517f08c379a00000000000000000000000000000000000000000000000000000000081526004016104c5906116b9565b60405180910390fd5b6000600783146104e6576729a2241af62c00006104f0565b670de0b6b3a76400005b9050600160009054906101000a900473ffffffffffffffffffffffffffffffffffffffff1673ffffffffffffffffffffffffffffffffffffffff166323b872dd3330846040518463ffffffff1660e01b8152600401610551939291906116d9565b6020604051808303816000875af1158015610570573d6000803e3d6000fd5b505050506040513d601f19601f82011682018060405250810190610594919061173c565b50600062015180846105a69190611798565b426105b191906117da565b9050604051806080016040528086815260200142815260200182815260200160011515815250600260003373ffffffffffffffffffffffffffffffffffffffff1673ffffffffffffffffffffffffffffffffffffffff168152602001908152602001600020600082015181600001908161062b9190611a10565b50602082015181600101556040820151816002015560608201518160030160006101000a81548160ff0219169083151502179055509050503373ffffffffffffffffffffffffffffffffffffffff167fbf11ec3a19ee2ecd25e50f5d4d8bb7a75a8beb76020241e95b78072ca8978ae386866040516106ab929190611ae2565b60405180910390a25050505050565b6106c2610f1f565b600160009054906101000a900473ffffffffffffffffffffffffffffffffffffffff1673ffffffffffffffffffffffffffffffffffffffff1663a9059cbb33836040518363ffffffff1660e01b815260040161071f929190611b12565b6020604051808303816000875af115801561073e573d6000803e3d6000fd5b505050506040513d601f19601f82011682018060405250810190610762919061173c565b5050565b600160009054906101000a900473ffffffffffffffffffffffffffffffffffffffff1681565b600080600260008473ffffffffffffffffffffffffffffffffffffffff1673ffffffffffffffffffffffffffffffffffffffff1681526020019081526020016000206040518060800160405290816000820180546107e99061183d565b80601f01602080910402602001604051908101604052809291908181526020018280546108159061183d565b80156108625780601f1061083757610100808354040283529160200191610862565b820191906000526020600020905b81548152906001019060200180831161084557829003601f168201915b5050505050815260200160018201548152602001600282015481526020016003820160009054906101000a900460ff1615151515815250509050806060015180156108b1575042816040015110155b915050919050565b60606108c48261078c565b610903576040517f08c379a00000000000000000000000000000000000000000000000000000000081526004016108fa90611bad565b60405180910390fd5b600260008373ffffffffffffffffffffffffffffffffffffffff1673ffffffffffffffffffffffffffffffffffffffff16815260200190815260200160002060000180546109509061183d565b80601f016020809104026020016040519081016040528092919081815260200182805461097c9061183d565b80156109c95780601f1061099e576101008083540402835291602001916109c9565b820191906000526020600020905b8154815290600101906020018083116109ac57829003601f168201915b50505050509050919050565b6109dd610f1f565b6109e76000610fa6565b565b6706f05b59d3b2000080600160009054906101000a900473ffffffffffffffffffffffffffffffffffffffff1673ffffffffffffffffffffffffffffffffffffffff166370a08231336040518263ffffffff1660e01b8152600401610a4e91906114a0565b602060405180830381865afa158015610a6b573d6000803e3d6000fd5b505050506040513d601f19601f82011682018060405250810190610a8f919061151c565b1015610ad0576040517f08c379a0000000000000000000000000000000000000000000000000000000008152600401610ac790611595565b60405180910390fd5b674563918244f40000600160009054906101000a900473ffffffffffffffffffffffffffffffffffffffff1673ffffffffffffffffffffffffffffffffffffffff166370a08231336040518263ffffffff1660e01b8152600401610b3491906114a0565b602060405180830381865afa158015610b51573d6000803e3d6000fd5b505050506040513d601f19601f82011682018060405250810190610b75919061151c565b1015610bb6576040517f08c379a0000000000000000000000000000000000000000000000000000000008152600401610bad9061164d565b60405180910390fd5b610bbf3361078c565b610bfe576040517f08c379a0000000000000000000000000000000000000000000000000000000008152600401610bf590611bad565b60405180910390fd5b600160009054906101000a900473ffffffffffffffffffffffffffffffffffffffff1673ffffffffffffffffffffffffffffffffffffffff166323b872dd33306706f05b59d3b200006040518463ffffffff1660e01b8152600401610c65939291906116d9565b6020604051808303816000875af1158015610c84573d6000803e3d6000fd5b505050506040513d601f19601f82011682018060405250810190610ca8919061173c565b503373ffffffffffffffffffffffffffffffffffffffff167f8ca233b8214599242e9885723495ae7619eccd0632a41c353f5424d8c23ad9f6600260003373ffffffffffffffffffffffffffffffffffffffff1673ffffffffffffffffffffffffffffffffffffffff168152602001908152602001600020600001604051610d309190611c51565b60405180910390a250565b6706f05b59d3b2000081565b60008060009054906101000a900473ffffffffffffffffffffffffffffffffffffffff16905090565b6729a2241af62c000081565b610d84610f1f565b80600160006101000a81548173ffffffffffffffffffffffffffffffffffffffff021916908373ffffffffffffffffffffffffffffffffffffffff16021790555050565b670de0b6b3a764000081565b6002602052806000526040600020600091509050806000018054610df79061183d565b80601f0160208091040260200160405190810160405280929190818152602001828054610e239061183d565b8015610e705780601f10610e4557610100808354040283529160200191610e70565b820191906000526020600020905b815481529060010190602001808311610e5357829003601f168201915b5050505050908060010154908060020154908060030160009054906101000a900460ff16905084565b610ea1610f1f565b600073ffffffffffffffffffffffffffffffffffffffff168173ffffffffffffffffffffffffffffffffffffffff1603610f135760006040517f1e4fbdf7000000000000000000000000000000000000000000000000000000008152600401610f0a91906114a0565b60405180910390fd5b610f1c81610fa6565b50565b610f2761106a565b73ffffffffffffffffffffffffffffffffffffffff16610f45610d47565b73ffffffffffffffffffffffffffffffffffffffff1614610fa457610f6861106a565b6040517f118cdaa7000000000000000000000000000000000000000000000000000000008152600401610f9b91906114a0565b60405180910390fd5b565b60008060009054906101000a900473ffffffffffffffffffffffffffffffffffffffff169050816000806101000a81548173ffffffffffffffffffffffffffffffffffffffff021916908373ffffffffffffffffffffffffffffffffffffffff1602179055508173ffffffffffffffffffffffffffffffffffffffff168173ffffffffffffffffffffffffffffffffffffffff167f8be0079c531659141344cd1fd0a4f28419497f9722a3daafe3b4186f6b6457e060405160405180910390a35050565b600033905090565b6000604051905090565b600080fd5b600080fd5b600080fd5b600080fd5b6000601f19601f8301169050919050565b7f4e487b7100000000000000000000000000000000000000000000000000000000600052604160045260246000fd5b6110d982611090565b810181811067ffffffffffffffff821117156110f8576110f76110a1565b5b80604052505050565b600061110b611072565b905061111782826110d0565b919050565b600067ffffffffffffffff821115611137576111366110a1565b5b61114082611090565b9050602081019050919050565b82818337600083830152505050565b600061116f61116a8461111c565b611101565b90508281526020810184848401111561118b5761118a61108b565b5b61119684828561114d565b509392505050565b600082601f8301126111b3576111b2611086565b5b81356111c384826020860161115c565b91505092915050565b6000819050919050565b6111df816111cc565b81146111ea57600080fd5b50565b6000813590506111fc816111d6565b92915050565b600080604083850312156112195761121861107c565b5b600083013567ffffffffffffffff81111561123757611236611081565b5b6112438582860161119e565b9250506020611254858286016111ed565b9150509250929050565b6000602082840312156112745761127361107c565b5b6000611282848285016111ed565b91505092915050565b600073ffffffffffffffffffffffffffffffffffffffff82169050919050565b6000819050919050565b60006112d06112cb6112c68461128b565b6112ab565b61128b565b9050919050565b60006112e2826112b5565b9050919050565b60006112f4826112d7565b9050919050565b611304816112e9565b82525050565b600060208201905061131f60008301846112fb565b92915050565b60006113308261128b565b9050919050565b61134081611325565b811461134b57600080fd5b50565b60008135905061135d81611337565b92915050565b6000602082840312156113795761137861107c565b5b60006113878482850161134e565b91505092915050565b60008115159050919050565b6113a581611390565b82525050565b60006020820190506113c0600083018461139c565b92915050565b600081519050919050565b600082825260208201905092915050565b60005b838110156114005780820151818401526020810190506113e5565b60008484015250505050565b6000611417826113c6565b61142181856113d1565b93506114318185602086016113e2565b61143a81611090565b840191505092915050565b6000602082019050818103600083015261145f818461140c565b905092915050565b611470816111cc565b82525050565b600060208201905061148b6000830184611467565b92915050565b61149a81611325565b82525050565b60006020820190506114b56000830184611491565b92915050565b600060808201905081810360008301526114d5818761140c565b90506114e46020830186611467565b6114f16040830185611467565b6114fe606083018461139c565b95945050505050565b600081519050611516816111d6565b92915050565b6000602082840312156115325761153161107c565b5b600061154084828501611507565b91505092915050565b7f496e73756666696369656e742057616c6c6e75742062616c616e636500000000600082015250565b600061157f601c836113d1565b915061158a82611549565b602082019050919050565b600060208201905081810360008301526115ae81611572565b9050919050565b7f596f75206e656564206174206c6561737420352057616c6c6e757420746f6b6560008201527f6e7320746f20696e7465726163742077697468207468697320636f6e7472616360208201527f7400000000000000000000000000000000000000000000000000000000000000604082015250565b60006116376041836113d1565b9150611642826115b5565b606082019050919050565b600060208201905081810360008301526116668161162a565b9050919050565b7f496e76616c6964206475726174696f6e00000000000000000000000000000000600082015250565b60006116a36010836113d1565b91506116ae8261166d565b602082019050919050565b600060208201905081810360008301526116d281611696565b9050919050565b60006060820190506116ee6000830186611491565b6116fb6020830185611491565b6117086040830184611467565b949350505050565b61171981611390565b811461172457600080fd5b50565b60008151905061173681611710565b92915050565b6000602082840312156117525761175161107c565b5b600061176084828501611727565b91505092915050565b7f4e487b7100000000000000000000000000000000000000000000000000000000600052601160045260246000fd5b60006117a3826111cc565b91506117ae836111cc565b92508282026117bc816111cc565b915082820484148315176117d3576117d2611769565b5b5092915050565b60006117e5826111cc565b91506117f0836111cc565b925082820190508082111561180857611807611769565b5b92915050565b7f4e487b7100000000000000000000000000000000000000000000000000000000600052602260045260246000fd5b6000600282049050600182168061185557607f821691505b6020821081036118685761186761180e565b5b50919050565b60008190508160005260206000209050919050565b60006020601f8301049050919050565b600082821b905092915050565b6000600883026118d07fffffffffffffffffffffffffffffffffffffffffffffffffffffffffffffffff82611893565b6118da8683611893565b95508019841693508086168417925050509392505050565b600061190d611908611903846111cc565b6112ab565b6111cc565b9050919050565b6000819050919050565b611927836118f2565b61193b61193382611914565b8484546118a0565b825550505050565b600090565b611950611943565b61195b81848461191e565b505050565b5b8181101561197f57611974600082611948565b600181019050611961565b5050565b601f8211156119c4576119958161186e565b61199e84611883565b810160208510156119ad578190505b6119c16119b985611883565b830182611960565b50505b505050565b600082821c905092915050565b60006119e7600019846008026119c9565b1980831691505092915050565b6000611a0083836119d6565b9150826002028217905092915050565b611a19826113c6565b67ffffffffffffffff811115611a3257611a316110a1565b5b611a3c825461183d565b611a47828285611983565b600060209050601f831160018114611a7a5760008415611a68578287015190505b611a7285826119f4565b865550611ada565b601f198416611a888661186e565b60005b82811015611ab057848901518255600182019150602085019450602081019050611a8b565b86831015611acd5784890151611ac9601f8916826119d6565b8355505b6001600288020188555050505b505050505050565b60006040820190508181036000830152611afc818561140c565b9050611b0b6020830184611467565b9392505050565b6000604082019050611b276000830185611491565b611b346020830184611467565b9392505050565b7f4c6f677320686176652065787069726564206f7220646f206e6f74206578697360008201527f7400000000000000000000000000000000000000000000000000000000000000602082015250565b6000611b976021836113d1565b9150611ba282611b3b565b604082019050919050565b60006020820190508181036000830152611bc681611b8a565b9050919050565b60008154611bda8161183d565b611be481866113d1565b94506001821660008114611bff5760018114611c1557611c48565b60ff198316865281151560200286019350611c48565b611c1e8561186e565b60005b83811015611c4057815481890152600182019150602081019050611c21565b808801955050505b50505092915050565b60006020820190508181036000830152611c6b8184611bcd565b90509291505056fea26469706673582212203d41d7a04c794d061dd0d874af53819bdb6661ec09368907fce15eb8993af29664736f6c634300081b0033","linkReferences":{}},"methodIdentifiers":{"MONTH_COST()":"983a68f4","PDF_ACCESS_COST()":"895b5de4","SEVEN_DAY_COST()":"a85a150d","accessLogsAsPDF()":"7cb12244","getUserLogs(address)":"5de0f6f6","isLogsValid(address)":"3a0cfd20","owner()":"8da5cb5b","renounceOwnership()":"715018a6","setWallnutToken(address)":"9a93cf92","storeLogs(string,uint256)":"192bb6ae","transferOwnership(address)":"f2fde38b","userLogs(address)":"b74941aa","wallnutToken()":"39f9ba38","withdrawTokens(uint256)":"315a095d"},"id":31}