{"abi":[{"type":"constructor","inputs":[{"name":"initialOwner","type":"address","internalType":"address"}],"stateMutability":"nonpayable"},{"type":"function","name":"MAX_SUPPLY","inputs":[],"outputs":[{"name":"","type":"uint256","internalType":"uint256"}],"stateMutability":"view"},{"type":"function","name":"allowance","inputs":[{"name":"owner","type":"address","internalType":"address"},{"name":"spender","type":"address","internalType":"address"}],"outputs":[{"name":"","type":"uint256","internalType":"uint256"}],"stateMutability":"view"},{"type":"function","name":"approve","inputs":[{"name":"spender","type":"address","internalType":"address"},{"name":"value","type":"uint256","internalType":"uint256"}],"outputs":[{"name":"","type":"bool","internalType":"bool"}],"stateMutability":"nonpayable"},{"type":"function","name":"balanceOf","inputs":[{"name":"account","type":"address","internalType":"address"}],"outputs":[{"name":"","type":"uint256","internalType":"uint256"}],"stateMutability":"view"},{"type":"function","name":"burn","inputs":[{"name":"from","type":"address","internalType":"address"},{"name":"amount","type":"uint256","internalType":"uint256"}],"outputs":[],"stateMutability":"nonpayable"},{"type":"function","name":"currentSupply","inputs":[],"outputs":[{"name":"","type":"uint256","internalType":"uint256"}],"stateMutability":"view"},{"type":"function","name":"decimals","inputs":[],"outputs":[{"name":"","type":"uint8","internalType":"uint8"}],"stateMutability":"view"},{"type":"function","name":"mint","inputs":[{"name":"to","type":"address","internalType":"address"},{"name":"amount","type":"uint256","internalType":"uint256"}],"outputs":[],"stateMutability":"nonpayable"},{"type":"function","name":"name","inputs":[],"outputs":[{"name":"","type":"string","internalType":"string"}],"stateMutability":"view"},{"type":"function","name":"owner","inputs":[],"outputs":[{"name":"","type":"address","internalType":"address"}],"stateMutability":"view"},{"type":"function","name":"renounceOwnership","inputs":[],"outputs":[],"stateMutability":"nonpayable"},{"type":"function","name":"requestMint","inputs":[{"name":"amount","type":"uint256","internalType":"uint256"}],"outputs":[],"stateMutability":"nonpayable"},{"type":"function","name":"symbol","inputs":[],"outputs":[{"name":"","type":"string","internalType":"string"}],"stateMutability":"view"},{"type":"function","name":"totalMinted","inputs":[],"outputs":[{"name":"","type":"uint256","internalType":"uint256"}],"stateMutability":"view"},{"type":"function","name":"totalSupply","inputs":[],"outputs":[{"name":"","type":"uint256","internalType":"uint256"}],"stateMutability":"view"},{"type":"function","name":"transfer","inputs":[{"name":"to","type":"address","internalType":"address"},{"name":"value","type":"uint256","internalType":"uint256"}],"outputs":[{"name":"","type":"bool","internalType":"bool"}],"stateMutability":"nonpayable"},{"type":"function","name":"transferFrom","inputs":[{"name":"from","type":"address","internalType":"address"},{"name":"to","type":"address","internalType":"address"},{"name":"value","type":"uint256","internalType":"uint256"}],"outputs":[{"name":"","type":"bool","internalType":"bool"}],"stateMutability":"nonpayable"},{"type":"function","name":"transferOwnership","inputs":[{"name":"newOwner","type":"address","internalType":"address"}],"outputs":[],"stateMutability":"nonpayable"},{"type":"event","name":"Approval","inputs":[{"name":"owner","type":"address","indexed":true,"internalType":"address"},{"name":"spender","type":"address","indexed":true,"internalType":"address"},{"name":"value","type":"uint256","indexed":false,"internalType":"uint256"}],"anonymous":false},{"type":"event","name":"OwnershipTransferred","inputs":[{"name":"previousOwner","type":"address","indexed":true,"internalType":"address"},{"name":"newOwner","type":"address","indexed":true,"internalType":"address"}],"anonymous":false},{"type":"event","name":"TokensBurned","inputs":[{"name":"from","type":"address","indexed":true,"internalType":"address"},{"name":"amount","type":"uint256","indexed":false,"internalType":"uint256"}],"anonymous":false},{"type":"event","name":"TokensMinted","inputs":[{"name":"to","type":"address","indexed":true,"internalType":"address"},{"name":"amount","type":"uint256","indexed":false,"internalType":"uint256"}],"anonymous":false},{"type":"event","name":"Transfer","inputs":[{"name":"from","type":"address","indexed":true,"internalType":"address"},{"name":"to","type":"address","indexed":true,"internalType":"address"},{"name":"value","type":"uint256","indexed":false,"internalType":"uint256"}],"anonymous":false},{"type":"error","name":"ERC20InsufficientAllowance","inputs":[{"name":"spender","type":"address","internalType":"address"},{"name":"allowance","type":"uint256","internalType":"uint256"},{"name":"needed","type":"uint256","internalType":"uint256"}]},{"type":"error","name":"ERC20InsufficientBalance","inputs":[{"name":"sender","type":"address","internalType":"address"},{"name":"balance","type":"uint256","internalType":"uint256"},{"name":"needed","type":"uint256","internalType":"uint256"}]},{"type":"error","name":"ERC20InvalidApprover","inputs":[{"name":"approver","type":"address","internalType":"address"}]},{"type":"error","name":"ERC20InvalidReceiver","inputs":[{"name":"receiver","type":"address","internalType":"address"}]},{"type":"error","name":"ERC20InvalidSender","inputs":[{"name":"sender","type":"address","internalType":"address"}]},{"type":"error","name":"ERC20InvalidSpender","inputs":[{"name":"spender","type":"address","internalType":"address"}]},{"type":"error","name":"OwnableInvalidOwner","inputs":[{"name":"owner","type":"address","internalType":"address"}]},{"type":"error","name":"OwnableUnauthorizedAccount","inputs":[{"name":"account","type":"address","internalType":"address"}]}],"bytecode":{"object":"0x608060405234801561001057600080fd5b5060405161205a38038061205a83398181016040528101906100329190610562565b806040518060400160405280600781526020017f57616c6c6e7574000000000000000000000000000000000000000000000000008152506040518060400160405280600681526020017f57414c4e5554000000000000000000000000000000000000000000000000000081525081600390816100ae91906107df565b5080600490816100be91906107df565b505050600073ffffffffffffffffffffffffffffffffffffffff168173ffffffffffffffffffffffffffffffffffffffff16036101335760006040517f1e4fbdf700000000000000000000000000000000000000000000000000000000815260040161012a91906108c0565b60405180910390fd5b6101428161018c60201b60201c565b50600060068190555061016481683635c9adc5dea0000061025260201b60201c565b683635c9adc5dea000006006600082825461017f919061090a565b925050819055505061099f565b6000600560009054906101000a900473ffffffffffffffffffffffffffffffffffffffff16905081600560006101000a81548173ffffffffffffffffffffffffffffffffffffffff021916908373ffffffffffffffffffffffffffffffffffffffff1602179055508173ffffffffffffffffffffffffffffffffffffffff168173ffffffffffffffffffffffffffffffffffffffff167f8be0079c531659141344cd1fd0a4f28419497f9722a3daafe3b4186f6b6457e060405160405180910390a35050565b600073ffffffffffffffffffffffffffffffffffffffff168273ffffffffffffffffffffffffffffffffffffffff16036102c45760006040517fec442f050000000000000000000000000000000000000000000000000000000081526004016102bb91906108c0565b60405180910390fd5b6102d6600083836102da60201b60201c565b5050565b600073ffffffffffffffffffffffffffffffffffffffff168373ffffffffffffffffffffffffffffffffffffffff160361032c578060026000828254610320919061090a565b925050819055506103ff565b60008060008573ffffffffffffffffffffffffffffffffffffffff1673ffffffffffffffffffffffffffffffffffffffff168152602001908152602001600020549050818110156103b8578381836040517fe450d38c0000000000000000000000000000000000000000000000000000000081526004016103af9392919061094d565b60405180910390fd5b8181036000808673ffffffffffffffffffffffffffffffffffffffff1673ffffffffffffffffffffffffffffffffffffffff16815260200190815260200160002081905550505b600073ffffffffffffffffffffffffffffffffffffffff168273ffffffffffffffffffffffffffffffffffffffff16036104485780600260008282540392505081905550610495565b806000808473ffffffffffffffffffffffffffffffffffffffff1673ffffffffffffffffffffffffffffffffffffffff168152602001908152602001600020600082825401925050819055505b8173ffffffffffffffffffffffffffffffffffffffff168373ffffffffffffffffffffffffffffffffffffffff167fddf252ad1be2c89b69c2b068fc378daa952ba7f163c4a11628f55a4df523b3ef836040516104f29190610984565b60405180910390a3505050565b600080fd5b600073ffffffffffffffffffffffffffffffffffffffff82169050919050565b600061052f82610504565b9050919050565b61053f81610524565b811461054a57600080fd5b50565b60008151905061055c81610536565b92915050565b600060208284031215610578576105776104ff565b5b60006105868482850161054d565b91505092915050565b600081519050919050565b7f4e487b7100000000000000000000000000000000000000000000000000000000600052604160045260246000fd5b7f4e487b7100000000000000000000000000000000000000000000000000000000600052602260045260246000fd5b6000600282049050600182168061061057607f821691505b602082108103610623576106226105c9565b5b50919050565b60008190508160005260206000209050919050565b60006020601f8301049050919050565b600082821b905092915050565b60006008830261068b7fffffffffffffffffffffffffffffffffffffffffffffffffffffffffffffffff8261064e565b610695868361064e565b95508019841693508086168417925050509392505050565b6000819050919050565b6000819050919050565b60006106dc6106d76106d2846106ad565b6106b7565b6106ad565b9050919050565b6000819050919050565b6106f6836106c1565b61070a610702826106e3565b84845461065b565b825550505050565b600090565b61071f610712565b61072a8184846106ed565b505050565b5b8181101561074e57610743600082610717565b600181019050610730565b5050565b601f8211156107935761076481610629565b61076d8461063e565b8101602085101561077c578190505b6107906107888561063e565b83018261072f565b50505b505050565b600082821c905092915050565b60006107b660001984600802610798565b1980831691505092915050565b60006107cf83836107a5565b9150826002028217905092915050565b6107e88261058f565b67ffffffffffffffff8111156108015761080061059a565b5b61080b82546105f8565b610816828285610752565b600060209050601f8311600181146108495760008415610837578287015190505b61084185826107c3565b8655506108a9565b601f19841661085786610629565b60005b8281101561087f5784890151825560018201915060208501945060208101905061085a565b8683101561089c5784890151610898601f8916826107a5565b8355505b6001600288020188555050505b505050505050565b6108ba81610524565b82525050565b60006020820190506108d560008301846108b1565b92915050565b7f4e487b7100000000000000000000000000000000000000000000000000000000600052601160045260246000fd5b6000610915826106ad565b9150610920836106ad565b9250828201905080821115610938576109376108db565b5b92915050565b610947816106ad565b82525050565b600060608201905061096260008301866108b1565b61096f602083018561093e565b61097c604083018461093e565b949350505050565b6000602082019050610999600083018461093e565b92915050565b6116ac806109ae6000396000f3fe608060405234801561001057600080fd5b50600436106101165760003560e01c8063715018a6116100a25780639dc29fac116100715780639dc29fac146102bf578063a2309ff8146102db578063a9059cbb146102f9578063dd62ed3e14610329578063f2fde38b1461035957610116565b8063715018a61461025b578063771282f6146102655780638da5cb5b1461028357806395d89b41146102a157610116565b8063313ce567116100e9578063313ce567146101b757806332cb6b0c146101d557806340c10f19146101f357806349733d041461020f57806370a082311461022b57610116565b806306fdde031461011b578063095ea7b31461013957806318160ddd1461016957806323b872dd14610187575b600080fd5b610123610375565b60405161013091906111c7565b60405180910390f35b610153600480360381019061014e9190611282565b610407565b60405161016091906112dd565b60405180910390f35b61017161042a565b60405161017e9190611307565b60405180910390f35b6101a1600480360381019061019c9190611322565b610434565b6040516101ae91906112dd565b60405180910390f35b6101bf610463565b6040516101cc9190611391565b60405180910390f35b6101dd61046c565b6040516101ea9190611307565b60405180910390f35b61020d60048036038101906102089190611282565b61047a565b005b610229600480360381019061022491906113ac565b610551565b005b610245600480360381019061024091906113d9565b610627565b6040516102529190611307565b60405180910390f35b61026361066f565b005b61026d610683565b60405161027a9190611307565b60405180910390f35b61028b61068d565b6040516102989190611415565b60405180910390f35b6102a96106b7565b6040516102b691906111c7565b60405180910390f35b6102d960048036038101906102d49190611282565b610749565b005b6102e3610811565b6040516102f09190611307565b60405180910390f35b610313600480360381019061030e9190611282565b610817565b60405161032091906112dd565b60405180910390f35b610343600480360381019061033e9190611430565b61083a565b6040516103509190611307565b60405180910390f35b610373600480360381019061036e91906113d9565b6108c1565b005b6060600380546103849061149f565b80601f01602080910402602001604051908101604052809291908181526020018280546103b09061149f565b80156103fd5780601f106103d2576101008083540402835291602001916103fd565b820191906000526020600020905b8154815290600101906020018083116103e057829003601f168201915b5050505050905090565b600080610412610947565b905061041f81858561094f565b600191505092915050565b6000600254905090565b60008061043f610947565b905061044c858285610961565b6104578585856109f6565b60019150509392505050565b60006012905090565b69d3c21bcecceda100000081565b610482610aea565b69d3c21bcecceda10000008160065461049b91906114ff565b11156104dc576040517f08c379a00000000000000000000000000000000000000000000000000000000081526004016104d39061157f565b60405180910390fd5b6104e68282610b71565b80600660008282546104f891906114ff565b925050819055508173ffffffffffffffffffffffffffffffffffffffff167f3f2c9d57c068687834f0de942a9babb9e5acab57d516d3480a3c16ee165a4273826040516105459190611307565b60405180910390a25050565b610559610aea565b69d3c21bcecceda10000008160065461057291906114ff565b11156105b3576040517f08c379a00000000000000000000000000000000000000000000000000000000081526004016105aa9061157f565b60405180910390fd5b6105bd3382610b71565b80600660008282546105cf91906114ff565b925050819055503373ffffffffffffffffffffffffffffffffffffffff167f3f2c9d57c068687834f0de942a9babb9e5acab57d516d3480a3c16ee165a42738260405161061c9190611307565b60405180910390a250565b60008060008373ffffffffffffffffffffffffffffffffffffffff1673ffffffffffffffffffffffffffffffffffffffff168152602001908152602001600020549050919050565b610677610aea565b6106816000610bf3565b565b6000600654905090565b6000600560009054906101000a900473ffffffffffffffffffffffffffffffffffffffff16905090565b6060600480546106c69061149f565b80601f01602080910402602001604051908101604052809291908181526020018280546106f29061149f565b801561073f5780601f106107145761010080835404028352916020019161073f565b820191906000526020600020905b81548152906001019060200180831161072257829003601f168201915b5050505050905090565b610751610aea565b8061075b83610627565b101561079c576040517f08c379a0000000000000000000000000000000000000000000000000000000008152600401610793906115eb565b60405180910390fd5b6107a68282610cb9565b80600660008282546107b8919061160b565b925050819055508173ffffffffffffffffffffffffffffffffffffffff167ffd38818f5291bf0bb3a2a48aadc06ba8757865d1dabd804585338aab3009dcb6826040516108059190611307565b60405180910390a25050565b60065481565b600080610822610947565b905061082f8185856109f6565b600191505092915050565b6000600160008473ffffffffffffffffffffffffffffffffffffffff1673ffffffffffffffffffffffffffffffffffffffff16815260200190815260200160002060008373ffffffffffffffffffffffffffffffffffffffff1673ffffffffffffffffffffffffffffffffffffffff16815260200190815260200160002054905092915050565b6108c9610aea565b600073ffffffffffffffffffffffffffffffffffffffff168173ffffffffffffffffffffffffffffffffffffffff160361093b5760006040517f1e4fbdf70000000000000000000000000000000000000000000000000000000081526004016109329190611415565b60405180910390fd5b61094481610bf3565b50565b600033905090565b61095c8383836001610d3b565b505050565b600061096d848461083a565b90507fffffffffffffffffffffffffffffffffffffffffffffffffffffffffffffffff8110156109f057818110156109e0578281836040517ffb8f41b20000000000000000000000000000000000000000000000000000000081526004016109d79392919061163f565b60405180910390fd5b6109ef84848484036000610d3b565b5b50505050565b600073ffffffffffffffffffffffffffffffffffffffff168373ffffffffffffffffffffffffffffffffffffffff1603610a685760006040517f96c6fd1e000000000000000000000000000000000000000000000000000000008152600401610a5f9190611415565b60405180910390fd5b600073ffffffffffffffffffffffffffffffffffffffff168273ffffffffffffffffffffffffffffffffffffffff1603610ada5760006040517fec442f05000000000000000000000000000000000000000000000000000000008152600401610ad19190611415565b60405180910390fd5b610ae5838383610f12565b505050565b610af2610947565b73ffffffffffffffffffffffffffffffffffffffff16610b1061068d565b73ffffffffffffffffffffffffffffffffffffffff1614610b6f57610b33610947565b6040517f118cdaa7000000000000000000000000000000000000000000000000000000008152600401610b669190611415565b60405180910390fd5b565b600073ffffffffffffffffffffffffffffffffffffffff168273ffffffffffffffffffffffffffffffffffffffff1603610be35760006040517fec442f05000000000000000000000000000000000000000000000000000000008152600401610bda9190611415565b60405180910390fd5b610bef60008383610f12565b5050565b6000600560009054906101000a900473ffffffffffffffffffffffffffffffffffffffff16905081600560006101000a81548173ffffffffffffffffffffffffffffffffffffffff021916908373ffffffffffffffffffffffffffffffffffffffff1602179055508173ffffffffffffffffffffffffffffffffffffffff168173ffffffffffffffffffffffffffffffffffffffff167f8be0079c531659141344cd1fd0a4f28419497f9722a3daafe3b4186f6b6457e060405160405180910390a35050565b600073ffffffffffffffffffffffffffffffffffffffff168273ffffffffffffffffffffffffffffffffffffffff1603610d2b5760006040517f96c6fd1e000000000000000000000000000000000000000000000000000000008152600401610d229190611415565b60405180910390fd5b610d3782600083610f12565b5050565b600073ffffffffffffffffffffffffffffffffffffffff168473ffffffffffffffffffffffffffffffffffffffff1603610dad5760006040517fe602df05000000000000000000000000000000000000000000000000000000008152600401610da49190611415565b60405180910390fd5b600073ffffffffffffffffffffffffffffffffffffffff168373ffffffffffffffffffffffffffffffffffffffff1603610e1f5760006040517f94280d62000000000000000000000000000000000000000000000000000000008152600401610e169190611415565b60405180910390fd5b81600160008673ffffffffffffffffffffffffffffffffffffffff1673ffffffffffffffffffffffffffffffffffffffff16815260200190815260200160002060008573ffffffffffffffffffffffffffffffffffffffff1673ffffffffffffffffffffffffffffffffffffffff168152602001908152602001600020819055508015610f0c578273ffffffffffffffffffffffffffffffffffffffff168473ffffffffffffffffffffffffffffffffffffffff167f8c5be1e5ebec7d5bd14f71427d1e84f3dd0314c0f7b2291e5b200ac8c7c3b92584604051610f039190611307565b60405180910390a35b50505050565b600073ffffffffffffffffffffffffffffffffffffffff168373ffffffffffffffffffffffffffffffffffffffff1603610f64578060026000828254610f5891906114ff565b92505081905550611037565b60008060008573ffffffffffffffffffffffffffffffffffffffff1673ffffffffffffffffffffffffffffffffffffffff16815260200190815260200160002054905081811015610ff0578381836040517fe450d38c000000000000000000000000000000000000000000000000000000008152600401610fe79392919061163f565b60405180910390fd5b8181036000808673ffffffffffffffffffffffffffffffffffffffff1673ffffffffffffffffffffffffffffffffffffffff16815260200190815260200160002081905550505b600073ffffffffffffffffffffffffffffffffffffffff168273ffffffffffffffffffffffffffffffffffffffff160361108057806002600082825403925050819055506110cd565b806000808473ffffffffffffffffffffffffffffffffffffffff1673ffffffffffffffffffffffffffffffffffffffff168152602001908152602001600020600082825401925050819055505b8173ffffffffffffffffffffffffffffffffffffffff168373ffffffffffffffffffffffffffffffffffffffff167fddf252ad1be2c89b69c2b068fc378daa952ba7f163c4a11628f55a4df523b3ef8360405161112a9190611307565b60405180910390a3505050565b600081519050919050565b600082825260208201905092915050565b60005b83811015611171578082015181840152602081019050611156565b60008484015250505050565b6000601f19601f8301169050919050565b600061119982611137565b6111a38185611142565b93506111b3818560208601611153565b6111bc8161117d565b840191505092915050565b600060208201905081810360008301526111e1818461118e565b905092915050565b600080fd5b600073ffffffffffffffffffffffffffffffffffffffff82169050919050565b6000611219826111ee565b9050919050565b6112298161120e565b811461123457600080fd5b50565b60008135905061124681611220565b92915050565b6000819050919050565b61125f8161124c565b811461126a57600080fd5b50565b60008135905061127c81611256565b92915050565b60008060408385031215611299576112986111e9565b5b60006112a785828601611237565b92505060206112b88582860161126d565b9150509250929050565b60008115159050919050565b6112d7816112c2565b82525050565b60006020820190506112f260008301846112ce565b92915050565b6113018161124c565b82525050565b600060208201905061131c60008301846112f8565b92915050565b60008060006060848603121561133b5761133a6111e9565b5b600061134986828701611237565b935050602061135a86828701611237565b925050604061136b8682870161126d565b9150509250925092565b600060ff82169050919050565b61138b81611375565b82525050565b60006020820190506113a66000830184611382565b92915050565b6000602082840312156113c2576113c16111e9565b5b60006113d08482850161126d565b91505092915050565b6000602082840312156113ef576113ee6111e9565b5b60006113fd84828501611237565b91505092915050565b61140f8161120e565b82525050565b600060208201905061142a6000830184611406565b92915050565b60008060408385031215611447576114466111e9565b5b600061145585828601611237565b925050602061146685828601611237565b9150509250929050565b7f4e487b7100000000000000000000000000000000000000000000000000000000600052602260045260246000fd5b600060028204905060018216806114b757607f821691505b6020821081036114ca576114c9611470565b5b50919050565b7f4e487b7100000000000000000000000000000000000000000000000000000000600052601160045260246000fd5b600061150a8261124c565b91506115158361124c565b925082820190508082111561152d5761152c6114d0565b5b92915050565b7f4d617820737570706c7920657863656564656400000000000000000000000000600082015250565b6000611569601383611142565b915061157482611533565b602082019050919050565b600060208201905081810360008301526115988161155c565b9050919050565b7f496e73756666696369656e742062616c616e636520746f206275726e00000000600082015250565b60006115d5601c83611142565b91506115e08261159f565b602082019050919050565b60006020820190508181036000830152611604816115c8565b9050919050565b60006116168261124c565b91506116218361124c565b9250828203905081811115611639576116386114d0565b5b92915050565b60006060820190506116546000830186611406565b61166160208301856112f8565b61166e60408301846112f8565b94935050505056fea2646970667358221220896d4d81ca4bbd3466934ecb6620994d97c9553564e6ddf108f21000e8a569a464736f6c634300081b0033","linkReferences":{}},"methodIdentifiers":{"MAX_SUPPLY()":"32cb6b0c","allowance(address,address)":"dd62ed3e","approve(address,uint256)":"095ea7b3","balanceOf(address)":"70a08231","burn(address,uint256)":"9dc29fac","currentSupply()":"771282f6","decimals()":"313ce567","mint(address,uint256)":"40c10f19","name()":"06fdde03","owner()":"8da5cb5b","renounceOwnership()":"715018a6","requestMint(uint256)":"49733d04","symbol()":"95d89b41","totalMinted()":"a2309ff8","totalSupply()":"18160ddd","transfer(address,uint256)":"a9059cbb","transferFrom(address,address,uint256)":"23b872dd","transferOwnership(address)":"f2fde38b"},"id":32}